{
  "contractName": "Factory",
  "abi": [
    {
      "constant": true,
      "inputs": [],
      "name": "propId",
      "outputs": [
        {
          "name": "",
          "type": "uint256"
        }
      ],
      "payable": false,
      "stateMutability": "view",
      "type": "function",
      "signature": "0x422fd14e"
    },
    {
      "constant": true,
      "inputs": [
        {
          "name": "",
          "type": "uint256"
        }
      ],
      "name": "contracts",
      "outputs": [
        {
          "name": "",
          "type": "address"
        }
      ],
      "payable": false,
      "stateMutability": "view",
      "type": "function",
      "signature": "0x474da79a"
    },
    {
      "constant": true,
      "inputs": [
        {
          "name": "",
          "type": "address"
        }
      ],
      "name": "profiles",
      "outputs": [
        {
          "name": "profileId",
          "type": "string"
        },
        {
          "name": "name",
          "type": "string"
        },
        {
          "name": "isNotary",
          "type": "bool"
        }
      ],
      "payable": false,
      "stateMutability": "view",
      "type": "function",
      "signature": "0xbbe15627"
    },
    {
      "constant": true,
      "inputs": [
        {
          "name": "",
          "type": "uint256"
        }
      ],
      "name": "properties",
      "outputs": [
        {
          "name": "propertyId",
          "type": "uint256"
        },
        {
          "name": "addr",
          "type": "string"
        },
        {
          "name": "zip",
          "type": "string"
        },
        {
          "name": "city",
          "type": "string"
        },
        {
          "name": "currentOwner",
          "type": "address"
        }
      ],
      "payable": false,
      "stateMutability": "view",
      "type": "function",
      "signature": "0xf7b10808"
    },
    {
      "constant": false,
      "inputs": [
        {
          "name": "_propertyId",
          "type": "uint256"
        },
        {
          "name": "_realtorFee",
          "type": "uint256"
        },
        {
          "name": "_price",
          "type": "uint256"
        },
        {
          "name": "_seller",
          "type": "address"
        },
        {
          "name": "_buyer",
          "type": "address"
        }
      ],
      "name": "createContract",
      "outputs": [
        {
          "name": "homeTransaction",
          "type": "address"
        }
      ],
      "payable": false,
      "stateMutability": "nonpayable",
      "type": "function",
      "signature": "0x9e68f040"
    },
    {
      "constant": false,
      "inputs": [
        {
          "name": "_userAddr",
          "type": "address"
        },
        {
          "name": "_profileId",
          "type": "string"
        },
        {
          "name": "_name",
          "type": "string"
        },
        {
          "name": "_isNotary",
          "type": "bool"
        }
      ],
      "name": "createProfile",
      "outputs": [],
      "payable": false,
      "stateMutability": "nonpayable",
      "type": "function",
      "signature": "0xbd878377"
    },
    {
      "constant": false,
      "inputs": [
        {
          "name": "_addr",
          "type": "string"
        },
        {
          "name": "_zip",
          "type": "string"
        },
        {
          "name": "_city",
          "type": "string"
        },
        {
          "name": "_currentOwner",
          "type": "address"
        }
      ],
      "name": "registerProperty",
      "outputs": [],
      "payable": false,
      "stateMutability": "nonpayable",
      "type": "function",
      "signature": "0xdf36792b"
    },
    {
      "constant": true,
      "inputs": [
        {
          "name": "_idProp",
          "type": "uint256"
        }
      ],
      "name": "getProperty",
      "outputs": [
        {
          "components": [
            {
              "name": "propertyId",
              "type": "uint256"
            },
            {
              "name": "addr",
              "type": "string"
            },
            {
              "name": "zip",
              "type": "string"
            },
            {
              "name": "city",
              "type": "string"
            },
            {
              "name": "currentOwner",
              "type": "address"
            }
          ],
          "name": "property",
          "type": "tuple"
        }
      ],
      "payable": false,
      "stateMutability": "view",
      "type": "function",
      "signature": "0x32665ffb"
    },
    {
      "constant": true,
      "inputs": [
        {
          "name": "_ownerAddress",
          "type": "address"
        }
      ],
      "name": "getProperties",
      "outputs": [
        {
          "components": [
            {
              "name": "propertyId",
              "type": "uint256"
            },
            {
              "name": "addr",
              "type": "string"
            },
            {
              "name": "zip",
              "type": "string"
            },
            {
              "name": "city",
              "type": "string"
            },
            {
              "name": "currentOwner",
              "type": "address"
            }
          ],
          "name": "",
          "type": "tuple[]"
        }
      ],
      "payable": false,
      "stateMutability": "view",
      "type": "function",
      "signature": "0x513fa864"
    },
    {
      "constant": false,
      "inputs": [
        {
          "name": "_index",
          "type": "uint256"
        },
        {
          "name": "_newOwner",
          "type": "address"
        }
      ],
      "name": "setOwner",
      "outputs": [],
      "payable": false,
      "stateMutability": "nonpayable",
      "type": "function",
      "signature": "0x7fd39247"
    },
    {
      "constant": true,
      "inputs": [
        {
          "name": "index",
          "type": "uint256"
        }
      ],
      "name": "getInstance",
      "outputs": [
        {
          "name": "instance",
          "type": "address"
        }
      ],
      "payable": false,
      "stateMutability": "view",
      "type": "function",
      "signature": "0xebd348de"
    },
    {
      "constant": true,
      "inputs": [],
      "name": "getInstances",
      "outputs": [
        {
          "name": "instances",
          "type": "address[]"
        }
      ],
      "payable": false,
      "stateMutability": "view",
      "type": "function",
      "signature": "0xd35fdd79"
    },
    {
      "constant": true,
      "inputs": [],
      "name": "getInstanceCount",
      "outputs": [
        {
          "name": "count",
          "type": "uint256"
        }
      ],
      "payable": false,
      "stateMutability": "view",
      "type": "function",
      "signature": "0xae34325c"
    }
  ],
  "bytecode": "0x6080604052600060015534801561001557600080fd5b5061346a806100256000396000f3fe608060405260043610620000d3576000357c0100000000000000000000000000000000000000000000000000000000900463ffffffff16806332665ffb14620000d8578063422fd14e146200011c578063474da79a146200014c578063513fa86414620001905780637fd3924714620001d45780639e68f0401462000202578063ae34325c1462000246578063bbe156271462000276578063bd87837714620002bc578063d35fdd7914620002ea578063df36792b146200031a578063ebd348de1462000348578063f7b10808146200038c575b600080fd5b348015620000e557600080fd5b50620001046004803603620000fe919081019062001627565b620003d4565b60405162000113919062001b7f565b60405180910390f35b3480156200012957600080fd5b506200013462000656565b60405162000143919062001ba3565b60405180910390f35b3480156200015957600080fd5b5062000178600480360362000172919081019062001627565b6200065c565b60405162000187919062001ad3565b60405180910390f35b3480156200019d57600080fd5b50620001bc6004803603620001b69190810190620014a6565b6200069b565b604051620001cb919062001aaf565b60405180910390f35b348015620001e157600080fd5b50620002006004803603620001fa919081019062001653565b62000aa7565b005b3480156200020f57600080fd5b506200022e600480360362000228919081019062001694565b62000b4a565b6040516200023d919062001ad3565b60405180910390f35b3480156200025357600080fd5b506200025e62000bfe565b6040516200026d919062001ba3565b60405180910390f35b3480156200028357600080fd5b50620002a260048036036200029c9190810190620014a6565b62000c0a565b604051620002b39392919062001af0565b60405180910390f35b348015620002c957600080fd5b50620002e86004803603620002e29190810190620014d2565b62000d79565b005b348015620002f757600080fd5b506200030262000e3d565b60405162000311919062001a8b565b60405180910390f35b3480156200032757600080fd5b5062000346600480360362000340919081019062001570565b62000ecd565b005b3480156200035557600080fd5b506200037460048036036200036e919081019062001627565b62000feb565b60405162000383919062001ad3565b60405180910390f35b3480156200039957600080fd5b50620003b86004803603620003b2919081019062001627565b6200107a565b604051620003cb95949392919062001bc0565b60405180910390f35b620003de620012a4565b6002600083815260200190815260200160002060a0604051908101604052908160008201548152602001600182018054600181600116156101000203166002900480601f016020809104026020016040519081016040528092919081815260200182805460018160011615610100020316600290048015620004a45780601f106200047857610100808354040283529160200191620004a4565b820191906000526020600020905b8154815290600101906020018083116200048657829003601f168201915b50505050508152602001600282018054600181600116156101000203166002900480601f0160208091040260200160405190810160405280929190818152602001828054600181600116156101000203166002900480156200054a5780601f106200051e576101008083540402835291602001916200054a565b820191906000526020600020905b8154815290600101906020018083116200052c57829003601f168201915b50505050508152602001600382018054600181600116156101000203166002900480601f016020809104026020016040519081016040528092919081815260200182805460018160011615610100020316600290048015620005f05780601f10620005c457610100808354040283529160200191620005f0565b820191906000526020600020905b815481529060010190602001808311620005d257829003601f168201915b505050505081526020016004820160009054906101000a900473ffffffffffffffffffffffffffffffffffffffff1673ffffffffffffffffffffffffffffffffffffffff1673ffffffffffffffffffffffffffffffffffffffff16815250509050919050565b60015481565b6000818154811015156200066c57fe5b906000526020600020016000915054906101000a900473ffffffffffffffffffffffffffffffffffffffff1681565b6060600080600190505b6001548111151562000733578373ffffffffffffffffffffffffffffffffffffffff166002600083815260200190815260200160002060040160009054906101000a900473ffffffffffffffffffffffffffffffffffffffff1673ffffffffffffffffffffffffffffffffffffffff161415620007255781806001019250505b8080600101915050620006a5565b5060006060826040519080825280602002602001820160405280156200077657816020015b62000762620012ea565b815260200190600190039081620007585790505b5090506000600190505b6001548111151562000a9b578573ffffffffffffffffffffffffffffffffffffffff166002600083815260200190815260200160002060040160009054906101000a900473ffffffffffffffffffffffffffffffffffffffff1673ffffffffffffffffffffffffffffffffffffffff16141562000a8d576002600082815260200190815260200160002060a0604051908101604052908160008201548152602001600182018054600181600116156101000203166002900480601f016020809104026020016040519081016040528092919081815260200182805460018160011615610100020316600290048015620008bd5780601f106200089157610100808354040283529160200191620008bd565b820191906000526020600020905b8154815290600101906020018083116200089f57829003601f168201915b50505050508152602001600282018054600181600116156101000203166002900480601f016020809104026020016040519081016040528092919081815260200182805460018160011615610100020316600290048015620009635780601f10620009375761010080835404028352916020019162000963565b820191906000526020600020905b8154815290600101906020018083116200094557829003601f168201915b50505050508152602001600382018054600181600116156101000203166002900480601f01602080910402602001604051908101604052809291908181526020018280546001816001161561010002031660029004801562000a095780601f10620009dd5761010080835404028352916020019162000a09565b820191906000526020600020905b815481529060010190602001808311620009eb57829003601f168201915b505050505081526020016004820160009054906101000a900473ffffffffffffffffffffffffffffffffffffffff1673ffffffffffffffffffffffffffffffffffffffff1673ffffffffffffffffffffffffffffffffffffffff1681525050828481518110151562000a7757fe5b9060200190602002018190525082806001019350505b808060010191505062000780565b50809350505050919050565b600154821115151562000af1576040517f08c379a000000000000000000000000000000000000000000000000000000000815260040162000ae89062001b5d565b60405180910390fd5b806002600084815260200190815260200160002060040160006101000a81548173ffffffffffffffffffffffffffffffffffffffff021916908373ffffffffffffffffffffffffffffffffffffffff1602179055505050565b60003086868633878762000b5d62001330565b62000b6f979695949392919062001a0e565b604051809103906000f08015801562000b8c573d6000803e3d6000fd5b50905060008190806001815401808255809150509060018203906000526020600020016000909192909190916101000a81548173ffffffffffffffffffffffffffffffffffffffff021916908373ffffffffffffffffffffffffffffffffffffffff1602179055505095945050505050565b60008080549050905090565b6003602052806000526040600020600091509050806000018054600181600116156101000203166002900480601f01602080910402602001604051908101604052809291908181526020018280546001816001161561010002031660029004801562000cba5780601f1062000c8e5761010080835404028352916020019162000cba565b820191906000526020600020905b81548152906001019060200180831162000c9c57829003601f168201915b505050505090806001018054600181600116156101000203166002900480601f01602080910402602001604051908101604052809291908181526020018280546001816001161561010002031660029004801562000d5c5780601f1062000d305761010080835404028352916020019162000d5c565b820191906000526020600020905b81548152906001019060200180831162000d3e57829003601f168201915b5050505050908060020160009054906101000a900460ff16905083565b606060405190810160405280848152602001838152602001821515815250600360008673ffffffffffffffffffffffffffffffffffffffff1673ffffffffffffffffffffffffffffffffffffffff168152602001908152602001600020600082015181600001908051906020019062000df492919062001341565b50602082015181600101908051906020019062000e1392919062001341565b5060408201518160020160006101000a81548160ff02191690831515021790555090505050505050565b6060600080548060200260200160405190810160405280929190818152602001828054801562000ec357602002820191906000526020600020905b8160009054906101000a900473ffffffffffffffffffffffffffffffffffffffff1673ffffffffffffffffffffffffffffffffffffffff168152602001906001019080831162000e78575b5050505050905090565b60016000815480929190600101919050555060a06040519081016040528060015481526020018581526020018481526020018381526020018273ffffffffffffffffffffffffffffffffffffffff1681525060026000600154815260200190815260200160002060008201518160000155602082015181600101908051906020019062000f5c92919062001341565b50604082015181600201908051906020019062000f7b92919062001341565b50606082015181600301908051906020019062000f9a92919062001341565b5060808201518160040160006101000a81548173ffffffffffffffffffffffffffffffffffffffff021916908373ffffffffffffffffffffffffffffffffffffffff16021790555090505050505050565b600080805490508210151562001038576040517f08c379a00000000000000000000000000000000000000000000000000000000081526004016200102f9062001b3b565b60405180910390fd5b6000828154811015156200104857fe5b9060005260206000200160009054906101000a900473ffffffffffffffffffffffffffffffffffffffff169050919050565b6002602052806000526040600020600091509050806000015490806001018054600181600116156101000203166002900480601f016020809104026020016040519081016040528092919081815260200182805460018160011615610100020316600290048015620011305780601f10620011045761010080835404028352916020019162001130565b820191906000526020600020905b8154815290600101906020018083116200111257829003601f168201915b505050505090806002018054600181600116156101000203166002900480601f016020809104026020016040519081016040528092919081815260200182805460018160011615610100020316600290048015620011d25780601f10620011a657610100808354040283529160200191620011d2565b820191906000526020600020905b815481529060010190602001808311620011b457829003601f168201915b505050505090806003018054600181600116156101000203166002900480601f016020809104026020016040519081016040528092919081815260200182805460018160011615610100020316600290048015620012745780601f10620012485761010080835404028352916020019162001274565b820191906000526020600020905b8154815290600101906020018083116200125657829003601f168201915b5050505050908060040160009054906101000a900473ffffffffffffffffffffffffffffffffffffffff16905085565b60a06040519081016040528060008152602001606081526020016060815260200160608152602001600073ffffffffffffffffffffffffffffffffffffffff1681525090565b60a06040519081016040528060008152602001606081526020016060815260200160608152602001600073ffffffffffffffffffffffffffffffffffffffff1681525090565b6040516116348062001dfd83390190565b828054600181600116156101000203166002900490600052602060002090601f016020900481019282601f106200138457805160ff1916838001178555620013b5565b82800160010185558215620013b5579182015b82811115620013b457825182559160200191906001019062001397565b5b509050620013c49190620013c8565b5090565b620013ed91905b80821115620013e9576000816000905550600101620013cf565b5090565b90565b6000620013fe823562001d40565b905092915050565b600062001414823562001d54565b905092915050565b60006200142a823562001d68565b905092915050565b600082601f83011215156200144657600080fd5b81356200145d620014578262001c60565b62001c32565b915080825260208301602083018583830111156200147a57600080fd5b6200148783828462001da6565b50505092915050565b60006200149e823562001d74565b905092915050565b600060208284031215620014b957600080fd5b6000620014c984828501620013f0565b91505092915050565b60008060008060808587031215620014e957600080fd5b6000620014f987828801620013f0565b945050602085013567ffffffffffffffff8111156200151757600080fd5b620015258782880162001432565b935050604085013567ffffffffffffffff8111156200154357600080fd5b620015518782880162001432565b925050606062001564878288016200141c565b91505092959194509250565b600080600080608085870312156200158757600080fd5b600085013567ffffffffffffffff811115620015a257600080fd5b620015b08782880162001432565b945050602085013567ffffffffffffffff811115620015ce57600080fd5b620015dc8782880162001432565b935050604085013567ffffffffffffffff811115620015fa57600080fd5b620016088782880162001432565b92505060606200161b87828801620013f0565b91505092959194509250565b6000602082840312156200163a57600080fd5b60006200164a8482850162001490565b91505092915050565b600080604083850312156200166757600080fd5b6000620016778582860162001490565b92505060206200168a85828601620013f0565b9150509250929050565b600080600080600060a08688031215620016ad57600080fd5b6000620016bd8882890162001490565b9550506020620016d08882890162001490565b9450506040620016e38882890162001490565b9350506060620016f68882890162001406565b9250506080620017098882890162001406565b9150509295509295909350565b620017218162001cf6565b82525050565b620017328162001ce2565b82525050565b6000620017458262001ca7565b808452602084019350620017598362001c8d565b60005b8281101562001791576200177286835162001826565b6200177d8262001cc8565b91506020860195506001810190506200175c565b50849250505092915050565b6000620017aa8262001cb2565b80845260208401935083602082028501620017c58562001c9a565b60005b8481101562001804578383038852620017e38383516200196f565b9250620017f08262001cd5565b9150602088019750600181019050620017c8565b508196508694505050505092915050565b620018208162001d0a565b82525050565b620018318162001d7e565b82525050565b6000620018448262001cbd565b8084526200185a81602086016020860162001db5565b620018658162001deb565b602085010191505092915050565b6000601282527f696e646578206f7574206f662072616e676500000000000000000000000000006020830152604082019050919050565b6000601482527f496e646578206f7574206f662072616e676520210000000000000000000000006020830152604082019050919050565b600060a083016000830151620018fb6000860182620019fd565b506020830151848203602086015262001915828262001837565b9150506040830151848203604086015262001931828262001837565b915050606083015184820360608601526200194d828262001837565b915050608083015162001964608086018262001727565b508091505092915050565b600060a083016000830151620019896000860182620019fd565b5060208301518482036020860152620019a3828262001837565b91505060408301518482036040860152620019bf828262001837565b91505060608301518482036060860152620019db828262001837565b9150506080830151620019f2608086018262001727565b508091505092915050565b62001a088162001d36565b82525050565b600060e08201905062001a25600083018a62001727565b62001a346020830189620019fd565b62001a436040830188620019fd565b62001a526060830187620019fd565b62001a61608083018662001716565b62001a7060a083018562001716565b62001a7f60c083018462001716565b98975050505050505050565b6000602082019050818103600083015262001aa7818462001738565b905092915050565b6000602082019050818103600083015262001acb81846200179d565b905092915050565b600060208201905062001aea600083018462001826565b92915050565b6000606082019050818103600083015262001b0c818662001837565b9050818103602083015262001b22818562001837565b905062001b33604083018462001815565b949350505050565b6000602082019050818103600083015262001b568162001873565b9050919050565b6000602082019050818103600083015262001b7881620018aa565b9050919050565b6000602082019050818103600083015262001b9b8184620018e1565b905092915050565b600060208201905062001bba6000830184620019fd565b92915050565b600060a08201905062001bd76000830188620019fd565b818103602083015262001beb818762001837565b9050818103604083015262001c01818662001837565b9050818103606083015262001c17818562001837565b905062001c28608083018462001727565b9695505050505050565b6000604051905081810181811067ffffffffffffffff8211171562001c5657600080fd5b8060405250919050565b600067ffffffffffffffff82111562001c7857600080fd5b601f19601f8301169050602081019050919050565b6000602082019050919050565b6000602082019050919050565b600081519050919050565b600081519050919050565b600081519050919050565b6000602082019050919050565b6000602082019050919050565b600062001cef8262001d16565b9050919050565b600062001d038262001d16565b9050919050565b60008115159050919050565b600073ffffffffffffffffffffffffffffffffffffffff82169050919050565b6000819050919050565b600062001d4d8262001d16565b9050919050565b600062001d618262001d16565b9050919050565b60008115159050919050565b6000819050919050565b600062001d8b8262001d92565b9050919050565b600062001d9f8262001d16565b9050919050565b82818337600083830152505050565b60005b8381101562001dd557808201518184015260208101905062001db8565b8381111562001de5576000848401525b50505050565b6000601f19601f830116905091905056fe608060405260008060006101000a81548160ff021916908360058111156200002357fe5b02179055506000600960006101000a81548160ff021916908360028111156200004857fe5b02179055503480156200005a57600080fd5b5060405160e0806200163483398101806040526200007c91908101906200022c565b848410151515620000c4576040517f08c379a0000000000000000000000000000000000000000000000000000000008152600401620000bb9062000336565b60405180910390fd5b86600660006101000a81548173ffffffffffffffffffffffffffffffffffffffff021916908373ffffffffffffffffffffffffffffffffffffffff16021790555082600060016101000a81548173ffffffffffffffffffffffffffffffffffffffff021916908373ffffffffffffffffffffffffffffffffffffffff16021790555081600160006101000a81548173ffffffffffffffffffffffffffffffffffffffff021916908373ffffffffffffffffffffffffffffffffffffffff16021790555080600260006101000a81548173ffffffffffffffffffffffffffffffffffffffff021916908373ffffffffffffffffffffffffffffffffffffffff16021790555085600581905550836004819055508460038190555050505050505050620003aa565b6000620001f8825162000378565b905092915050565b60006200020e82516200038c565b905092915050565b6000620002248251620003a0565b905092915050565b600080600080600080600060e0888a0312156200024857600080fd5b6000620002588a828b01620001ea565b97505060206200026b8a828b0162000216565b96505060406200027e8a828b0162000216565b9550506060620002918a828b0162000216565b9450506080620002a48a828b0162000200565b93505060a0620002b78a828b0162000200565b92505060c0620002ca8a828b0162000200565b91505092959891949750929550565b6000602882527f5072696365206e6565647320746f206265206d6f7265207468616e207265616c60208301527f746f7220666565210000000000000000000000000000000000000000000000006040830152606082019050919050565b600060208201905081810360008301526200035181620002d9565b9050919050565b600073ffffffffffffffffffffffffffffffffffffffff82169050919050565b6000620003858262000358565b9050919050565b6000620003998262000358565b9050919050565b6000819050919050565b61127a80620003ba6000396000f3fe6080604052600436106100d0576000357c0100000000000000000000000000000000000000000000000000000000900463ffffffff16806308551a53146100d557806318be633f146101005780632323f8f51461010a5780633e23b9f9146101145780634ed523e91461013f5780636b0ccb76146101495780637150d8ae1461017257806385209ee01461019d578063968e28e8146101c8578063a035b1fe146101f3578063a0cb23cd1461021e578063ba0892d914610249578063d0e30db014610260578063ee7a3b8e1461028b575b600080fd5b3480156100e157600080fd5b506100ea6102b6565b6040516100f79190611020565b60405180910390f35b6101086102dc565b005b6101126103fc565b005b34801561012057600080fd5b50610129610715565b6040516101369190611020565b60405180910390f35b61014761073b565b005b34801561015557600080fd5b50610170600480360361016b9190810190610d45565b6108d1565b005b34801561017e57600080fd5b50610187610ad4565b6040516101949190611020565b60405180910390f35b3480156101a957600080fd5b506101b2610afa565b6040516101bf919061103b565b60405180910390f35b3480156101d457600080fd5b506101dd610b0c565b6040516101ea9190611156565b60405180910390f35b3480156101ff57600080fd5b50610208610b12565b6040516102159190611156565b60405180910390f35b34801561022a57600080fd5b50610233610b18565b6040516102409190611156565b60405180910390f35b34801561025557600080fd5b5061025e610b1e565b005b34801561026c57600080fd5b50610275610d25565b6040516102829190611156565b60405180910390f35b34801561029757600080fd5b506102a0610d2b565b6040516102ad9190611156565b60405180910390f35b600160009054906101000a900473ffffffffffffffffffffffffffffffffffffffff1681565b3373ffffffffffffffffffffffffffffffffffffffff16600160009054906101000a900473ffffffffffffffffffffffffffffffffffffffff1673ffffffffffffffffffffffffffffffffffffffff1614151561036e576040517f08c379a000000000000000000000000000000000000000000000000000000000815260040161036590611056565b60405180910390fd5b6000600581111561037b57fe5b6000809054906101000a900460ff16600581111561039557fe5b1415156103d7576040517f08c379a00000000000000000000000000000000000000000000000000000000081526004016103ce906110f6565b60405180910390fd5b60016000806101000a81548160ff021916908360058111156103f557fe5b0217905550565b3373ffffffffffffffffffffffffffffffffffffffff16600260009054906101000a900473ffffffffffffffffffffffffffffffffffffffff1673ffffffffffffffffffffffffffffffffffffffff1614151561048e576040517f08c379a000000000000000000000000000000000000000000000000000000000815260040161048590611136565b60405180910390fd5b6003600581111561049b57fe5b6000809054906101000a900460ff1660058111156104b557fe5b1415156104f7576040517f08c379a00000000000000000000000000000000000000000000000000000000081526004016104ee906110f6565b60405180910390fd5b6004546007543401141515610541576040517f08c379a0000000000000000000000000000000000000000000000000000000008152600401610538906110b6565b60405180910390fd5b60046000806101000a81548160ff0219169083600581111561055f57fe5b02179055506000600660009054906101000a900473ffffffffffffffffffffffffffffffffffffffff1690508073ffffffffffffffffffffffffffffffffffffffff16637fd39247600554600260009054906101000a900473ffffffffffffffffffffffffffffffffffffffff166040518363ffffffff167c0100000000000000000000000000000000000000000000000000000000028152600401610606929190611171565b600060405180830381600087803b15801561062057600080fd5b505af1158015610634573d6000803e3d6000fd5b50505050600160009054906101000a900473ffffffffffffffffffffffffffffffffffffffff1673ffffffffffffffffffffffffffffffffffffffff166108fc600354600454039081150290604051600060405180830381858888f193505050501580156106a6573d6000803e3d6000fd5b50600060019054906101000a900473ffffffffffffffffffffffffffffffffffffffff1673ffffffffffffffffffffffffffffffffffffffff166108fc6003549081150290604051600060405180830381858888f19350505050158015610711573d6000803e3d6000fd5b5050565b600060019054906101000a900473ffffffffffffffffffffffffffffffffffffffff1681565b3373ffffffffffffffffffffffffffffffffffffffff16600260009054906101000a900473ffffffffffffffffffffffffffffffffffffffff1673ffffffffffffffffffffffffffffffffffffffff161415156107cd576040517f08c379a00000000000000000000000000000000000000000000000000000000081526004016107c490611116565b60405180910390fd5b600160058111156107da57fe5b6000809054906101000a900460ff1660058111156107f457fe5b141515610836576040517f08c379a000000000000000000000000000000000000000000000000000000000815260040161082d906110f6565b60405180910390fd5b6064600a6004540281151561084757fe5b04341015801561085957506004543411155b151561089a576040517f08c379a0000000000000000000000000000000000000000000000000000000008152600401610891906110d6565b60405180910390fd5b60026000806101000a81548160ff021916908360058111156108b857fe5b02179055503460078190555061012c4201600881905550565b3373ffffffffffffffffffffffffffffffffffffffff16600060019054906101000a900473ffffffffffffffffffffffffffffffffffffffff1673ffffffffffffffffffffffffffffffffffffffff16141515610963576040517f08c379a000000000000000000000000000000000000000000000000000000000815260040161095a90611096565b60405180910390fd5b6002600581111561097057fe5b6000809054906101000a900460ff16600581111561098a57fe5b1415156109cc576040517f08c379a00000000000000000000000000000000000000000000000000000000081526004016109c3906110f6565b60405180910390fd5b8015610a1e576001600960006101000a81548160ff021916908360028111156109f157fe5b021790555060036000806101000a81548160ff02191690836005811115610a1457fe5b0217905550610ad1565b6002600960006101000a81548160ff02191690836002811115610a3d57fe5b021790555060056000806101000a81548160ff02191690836005811115610a6057fe5b0217905550600260009054906101000a900473ffffffffffffffffffffffffffffffffffffffff1673ffffffffffffffffffffffffffffffffffffffff166108fc6007549081150290604051600060405180830381858888f19350505050158015610acf573d6000803e3d6000fd5b505b50565b600260009054906101000a900473ffffffffffffffffffffffffffffffffffffffff1681565b6000809054906101000a900460ff1681565b60035481565b60045481565b60085481565b3373ffffffffffffffffffffffffffffffffffffffff16600260009054906101000a900473ffffffffffffffffffffffffffffffffffffffff1673ffffffffffffffffffffffffffffffffffffffff161480610b7c57504260085411155b1515610bbd576040517f08c379a0000000000000000000000000000000000000000000000000000000008152600401610bb490611076565b60405180910390fd5b60036005811115610bca57fe5b6000809054906101000a900460ff166005811115610be457fe5b141515610c26576040517f08c379a0000000000000000000000000000000000000000000000000000000008152600401610c1d906110f6565b60405180910390fd5b60056000806101000a81548160ff02191690836005811115610c4457fe5b0217905550600160009054906101000a900473ffffffffffffffffffffffffffffffffffffffff1673ffffffffffffffffffffffffffffffffffffffff166108fc600354600754039081150290604051600060405180830381858888f19350505050158015610cb7573d6000803e3d6000fd5b50600060019054906101000a900473ffffffffffffffffffffffffffffffffffffffff1673ffffffffffffffffffffffffffffffffffffffff166108fc6003549081150290604051600060405180830381858888f19350505050158015610d22573d6000803e3d6000fd5b50565b60075481565b60055481565b6000610d3d82356111ec565b905092915050565b600060208284031215610d5757600080fd5b6000610d6584828501610d31565b91505092915050565b610d77816111f8565b82525050565b610d868161119a565b82525050565b610d958161120a565b82525050565b6000601d82527f4f6e6c792073656c6c65722063616e207369676e20636f6e74726163740000006020830152604082019050919050565b6000603382527f4f6e6c792062757965722063616e207769746864726177206265666f7265207460208301527f72616e73616374696f6e20646561646c696e65000000000000000000000000006040830152606082019050919050565b6000602a82527f4f6e6c79207265616c746f722063616e2072657669657720636c6f73696e672060208301527f636f6e646974696f6e73000000000000000000000000000000000000000000006040830152606082019050919050565b6000603f82527f4275796572206e6565647320746f20706179207468652072657374206f66207460208301527f686520636f737420746f2066696e616c697a65207472616e73616374696f6e006040830152606082019050919050565b6000603c82527f4275796572206e6565647320746f206465706f736974206265747765656e203160208301527f302520616e64203130302520746f207369676e20636f6e7472616374000000006040830152606082019050919050565b6000601482527f57726f6e6720636f6e74726163742073746174650000000000000000000000006020830152604082019050919050565b6000601c82527f4f6e6c792062757965722063616e207369676e20636f6e7472616374000000006020830152604082019050919050565b6000602382527f4f6e6c792062757965722063616e2066696e616c697a65207472616e7361637460208301527f696f6e00000000000000000000000000000000000000000000000000000000006040830152606082019050919050565b61101a816111e2565b82525050565b60006020820190506110356000830184610d7d565b92915050565b60006020820190506110506000830184610d8c565b92915050565b6000602082019050818103600083015261106f81610d9b565b9050919050565b6000602082019050818103600083015261108f81610dd2565b9050919050565b600060208201905081810360008301526110af81610e2f565b9050919050565b600060208201905081810360008301526110cf81610e8c565b9050919050565b600060208201905081810360008301526110ef81610ee9565b9050919050565b6000602082019050818103600083015261110f81610f46565b9050919050565b6000602082019050818103600083015261112f81610f7d565b9050919050565b6000602082019050818103600083015261114f81610fb4565b9050919050565b600060208201905061116b6000830184611011565b92915050565b60006040820190506111866000830185611011565b6111936020830184610d6e565b9392505050565b60006111a5826111c2565b9050919050565b60006006821015156111ba57fe5b819050919050565b600073ffffffffffffffffffffffffffffffffffffffff82169050919050565b6000819050919050565b60008115159050919050565b60006112038261121c565b9050919050565b6000611215826111ac565b9050919050565b60006112278261122e565b9050919050565b6000611239826111c2565b905091905056fea265627a7a72305820fee1f62c3c9a626878701488a8055a6316b41d3c263ba4c96171060480fefafc6c6578706572696d656e74616cf50037a265627a7a72305820e1b2276e0eb860d950c09d45885aa40acf8ecb34e50b35bc52f2439b8172ed446c6578706572696d656e74616cf50037",
  "source": "pragma solidity >=0.4.25 <0.6.0;\npragma experimental ABIEncoderV2;\n\nimport \"./HomeTransaction.sol\";\n\ncontract Factory {\n    //Address of government account\n    address constant govAddress = 0xE9D5500Ca1748f21CCdA50f04D2096145aD40838;\n\n    HomeTransaction[] public contracts;\n\n    //Proprty id (counter)\n    uint256 public propId = 0;\n\n    //structure proprety\n    struct Property {\n        uint256 propertyId;\n        string addr;\n        string zip;\n        string city;\n        address currentOwner;\n    }\n\n    //structure profile (user)\n    struct Profile {\n        string profileId;\n        string name;\n        bool isNotary;\n    }\n\n    //A sort of lists of properties mapped by their id + profiles mapped by addresse of users\n    mapping(uint256 => Property) public properties;\n    mapping(address => Profile) public profiles;\n\n    //Used to give permission to notary only\n    modifier onlyNotary() {\n        require(\n            profiles[msg.sender].isNotary == true,\n            \"Only Notary can create a contract\"\n        );\n        _;\n    }\n\n    //Used to give permission to government only\n    modifier onlyGov() {\n        require(\n            msg.sender == govAddress,\n            \"Only Government can register a property\"\n        );\n        _;\n    }\n\n    function createContract(\n        uint256 _propertyId,\n        uint256 _realtorFee,\n        uint256 _price,\n        address payable _seller,\n        address payable _buyer\n    ) public returns (HomeTransaction homeTransaction) {\n        homeTransaction = new HomeTransaction(\n            address(this),\n            _propertyId,\n            _realtorFee,\n            _price,\n            msg.sender,\n            _seller,\n            _buyer\n        );\n        contracts.push(homeTransaction);\n    }\n\n    function createProfile(\n        address _userAddr,\n        string memory _profileId,\n        string memory _name,\n        bool _isNotary\n    ) public {\n        profiles[_userAddr] = Profile(_profileId, _name, _isNotary);\n    }\n\n    function registerProperty(\n        string memory _addr,\n        string memory _zip,\n        string memory _city,\n        address _currentOwner\n    ) public {\n        propId++;\n        properties[propId] = Property(\n            propId,\n            _addr,\n            _zip,\n            _city,\n            _currentOwner\n        );\n    }\n\n    function getProperty(uint256 _idProp)\n        public\n        view\n        returns (Property memory property)\n    {\n        property = properties[_idProp];\n    }\n\n    function getProperties(address _ownerAddress) public view returns(Property[] memory){\n        uint count;\n        for(uint i=1; i <= propId; i++){\n            if (properties[i].currentOwner == _ownerAddress){\n                count++;\n            }\n        }\n\n        uint j;\n        Property[] memory propertiesOfOwner = new Property[](count);\n        for(uint i=1; i <= propId; i++){\n            if (properties[i].currentOwner == _ownerAddress){\n                propertiesOfOwner[j] = properties[i];\n                j++;\n            }\n        }\n\n        return propertiesOfOwner;\n    }\n\n    function setOwner(uint256 _index, address _newOwner) public {\n        require(_index <= propId, \"Index out of range !\");\n        properties[_index].currentOwner = _newOwner;\n    }\n\n    function getInstance(uint256 index)\n        public\n        view\n        returns (HomeTransaction instance)\n    {\n        require(index < contracts.length, \"index out of range\");\n\n        instance = contracts[index];\n    }\n\n    function getInstances()\n        public\n        view\n        returns (HomeTransaction[] memory instances)\n    {\n        instances = contracts;\n    }\n\n    function getInstanceCount() public view returns (uint256 count) {\n        count = contracts.length;\n    }\n}\n",
  "sourcePath": "/home/omar/Desktop/ENSIAS/2A/Projects/PFA 2021/light-bootstrap-dashboard-angular2-master/ethereum/contracts/Factory.sol",
  "compiler": {
    "name": "solc",
    "version": "0.5.0+commit.1d4f565a.Emscripten.clang"
  },
  "schemaVersion": "3.0.1",
  "updatedAt": "2021-07-01T10:11:21.049Z",
  "devdoc": {
    "methods": {}
  },
  "userdoc": {
    "methods": {}
  }
}