{
  "contractName": "HomeTransaction",
  "abi": [
    {
      "constant": true,
      "inputs": [],
      "name": "seller",
      "outputs": [
        {
          "name": "",
          "type": "address"
        }
      ],
      "payable": false,
      "stateMutability": "view",
      "type": "function"
    },
    {
      "constant": true,
      "inputs": [],
      "name": "realtor",
      "outputs": [
        {
          "name": "",
          "type": "address"
        }
      ],
      "payable": false,
      "stateMutability": "view",
      "type": "function"
    },
    {
      "constant": true,
      "inputs": [],
      "name": "buyer",
      "outputs": [
        {
          "name": "",
          "type": "address"
        }
      ],
      "payable": false,
      "stateMutability": "view",
      "type": "function"
    },
    {
      "constant": true,
      "inputs": [],
      "name": "contractState",
      "outputs": [
        {
          "name": "",
          "type": "uint8"
        }
      ],
      "payable": false,
      "stateMutability": "view",
      "type": "function"
    },
    {
      "constant": true,
      "inputs": [],
      "name": "realtorFee",
      "outputs": [
        {
          "name": "",
          "type": "uint256"
        }
      ],
      "payable": false,
      "stateMutability": "view",
      "type": "function"
    },
    {
      "constant": true,
      "inputs": [],
      "name": "price",
      "outputs": [
        {
          "name": "",
          "type": "uint256"
        }
      ],
      "payable": false,
      "stateMutability": "view",
      "type": "function"
    },
    {
      "constant": true,
      "inputs": [],
      "name": "finalizeDeadline",
      "outputs": [
        {
          "name": "",
          "type": "uint256"
        }
      ],
      "payable": false,
      "stateMutability": "view",
      "type": "function"
    },
    {
      "constant": true,
      "inputs": [],
      "name": "deposit",
      "outputs": [
        {
          "name": "",
          "type": "uint256"
        }
      ],
      "payable": false,
      "stateMutability": "view",
      "type": "function"
    },
    {
      "constant": true,
      "inputs": [],
      "name": "propertyId",
      "outputs": [
        {
          "name": "",
          "type": "uint256"
        }
      ],
      "payable": false,
      "stateMutability": "view",
      "type": "function"
    },
    {
      "inputs": [
        {
          "name": "_instanceFactoryAddr",
          "type": "address"
        },
        {
          "name": "_propertyId",
          "type": "uint256"
        },
        {
          "name": "_realtorFee",
          "type": "uint256"
        },
        {
          "name": "_price",
          "type": "uint256"
        },
        {
          "name": "_realtor",
          "type": "address"
        },
        {
          "name": "_seller",
          "type": "address"
        },
        {
          "name": "_buyer",
          "type": "address"
        }
      ],
      "payable": false,
      "stateMutability": "nonpayable",
      "type": "constructor"
    },
    {
      "constant": false,
      "inputs": [],
      "name": "sellerSignContract",
      "outputs": [],
      "payable": true,
      "stateMutability": "payable",
      "type": "function"
    },
    {
      "constant": false,
      "inputs": [],
      "name": "buyerSignContractAndPayDeposit",
      "outputs": [],
      "payable": true,
      "stateMutability": "payable",
      "type": "function"
    },
    {
      "constant": false,
      "inputs": [
        {
          "name": "accepted",
          "type": "bool"
        }
      ],
      "name": "realtorReviewedClosingConditions",
      "outputs": [],
      "payable": false,
      "stateMutability": "nonpayable",
      "type": "function"
    },
    {
      "constant": false,
      "inputs": [],
      "name": "buyerFinalizeTransaction",
      "outputs": [],
      "payable": true,
      "stateMutability": "payable",
      "type": "function"
    },
    {
      "constant": false,
      "inputs": [],
      "name": "anyWithdrawFromTransaction",
      "outputs": [],
      "payable": false,
      "stateMutability": "nonpayable",
      "type": "function"
    }
  ],
  "bytecode": "0x608060405260008060006101000a81548160ff021916908360058111156200002357fe5b02179055506000600960006101000a81548160ff021916908360028111156200004857fe5b02179055503480156200005a57600080fd5b5060405160e0806200163483398101806040526200007c91908101906200022c565b848410151515620000c4576040517f08c379a0000000000000000000000000000000000000000000000000000000008152600401620000bb9062000336565b60405180910390fd5b86600660006101000a81548173ffffffffffffffffffffffffffffffffffffffff021916908373ffffffffffffffffffffffffffffffffffffffff16021790555082600060016101000a81548173ffffffffffffffffffffffffffffffffffffffff021916908373ffffffffffffffffffffffffffffffffffffffff16021790555081600160006101000a81548173ffffffffffffffffffffffffffffffffffffffff021916908373ffffffffffffffffffffffffffffffffffffffff16021790555080600260006101000a81548173ffffffffffffffffffffffffffffffffffffffff021916908373ffffffffffffffffffffffffffffffffffffffff16021790555085600581905550836004819055508460038190555050505050505050620003aa565b6000620001f8825162000378565b905092915050565b60006200020e82516200038c565b905092915050565b6000620002248251620003a0565b905092915050565b600080600080600080600060e0888a0312156200024857600080fd5b6000620002588a828b01620001ea565b97505060206200026b8a828b0162000216565b96505060406200027e8a828b0162000216565b9550506060620002918a828b0162000216565b9450506080620002a48a828b0162000200565b93505060a0620002b78a828b0162000200565b92505060c0620002ca8a828b0162000200565b91505092959891949750929550565b6000602882527f5072696365206e6565647320746f206265206d6f7265207468616e207265616c60208301527f746f7220666565210000000000000000000000000000000000000000000000006040830152606082019050919050565b600060208201905081810360008301526200035181620002d9565b9050919050565b600073ffffffffffffffffffffffffffffffffffffffff82169050919050565b6000620003858262000358565b9050919050565b6000620003998262000358565b9050919050565b6000819050919050565b61127a80620003ba6000396000f3fe6080604052600436106100d0576000357c0100000000000000000000000000000000000000000000000000000000900463ffffffff16806308551a53146100d557806318be633f146101005780632323f8f51461010a5780633e23b9f9146101145780634ed523e91461013f5780636b0ccb76146101495780637150d8ae1461017257806385209ee01461019d578063968e28e8146101c8578063a035b1fe146101f3578063a0cb23cd1461021e578063ba0892d914610249578063d0e30db014610260578063ee7a3b8e1461028b575b600080fd5b3480156100e157600080fd5b506100ea6102b6565b6040516100f79190611020565b60405180910390f35b6101086102dc565b005b6101126103fc565b005b34801561012057600080fd5b50610129610715565b6040516101369190611020565b60405180910390f35b61014761073b565b005b34801561015557600080fd5b50610170600480360361016b9190810190610d45565b6108d1565b005b34801561017e57600080fd5b50610187610ad4565b6040516101949190611020565b60405180910390f35b3480156101a957600080fd5b506101b2610afa565b6040516101bf919061103b565b60405180910390f35b3480156101d457600080fd5b506101dd610b0c565b6040516101ea9190611156565b60405180910390f35b3480156101ff57600080fd5b50610208610b12565b6040516102159190611156565b60405180910390f35b34801561022a57600080fd5b50610233610b18565b6040516102409190611156565b60405180910390f35b34801561025557600080fd5b5061025e610b1e565b005b34801561026c57600080fd5b50610275610d25565b6040516102829190611156565b60405180910390f35b34801561029757600080fd5b506102a0610d2b565b6040516102ad9190611156565b60405180910390f35b600160009054906101000a900473ffffffffffffffffffffffffffffffffffffffff1681565b3373ffffffffffffffffffffffffffffffffffffffff16600160009054906101000a900473ffffffffffffffffffffffffffffffffffffffff1673ffffffffffffffffffffffffffffffffffffffff1614151561036e576040517f08c379a000000000000000000000000000000000000000000000000000000000815260040161036590611056565b60405180910390fd5b6000600581111561037b57fe5b6000809054906101000a900460ff16600581111561039557fe5b1415156103d7576040517f08c379a00000000000000000000000000000000000000000000000000000000081526004016103ce906110f6565b60405180910390fd5b60016000806101000a81548160ff021916908360058111156103f557fe5b0217905550565b3373ffffffffffffffffffffffffffffffffffffffff16600260009054906101000a900473ffffffffffffffffffffffffffffffffffffffff1673ffffffffffffffffffffffffffffffffffffffff1614151561048e576040517f08c379a000000000000000000000000000000000000000000000000000000000815260040161048590611136565b60405180910390fd5b6003600581111561049b57fe5b6000809054906101000a900460ff1660058111156104b557fe5b1415156104f7576040517f08c379a00000000000000000000000000000000000000000000000000000000081526004016104ee906110f6565b60405180910390fd5b6004546007543401141515610541576040517f08c379a0000000000000000000000000000000000000000000000000000000008152600401610538906110b6565b60405180910390fd5b60046000806101000a81548160ff0219169083600581111561055f57fe5b02179055506000600660009054906101000a900473ffffffffffffffffffffffffffffffffffffffff1690508073ffffffffffffffffffffffffffffffffffffffff16637fd39247600554600260009054906101000a900473ffffffffffffffffffffffffffffffffffffffff166040518363ffffffff167c0100000000000000000000000000000000000000000000000000000000028152600401610606929190611171565b600060405180830381600087803b15801561062057600080fd5b505af1158015610634573d6000803e3d6000fd5b50505050600160009054906101000a900473ffffffffffffffffffffffffffffffffffffffff1673ffffffffffffffffffffffffffffffffffffffff166108fc600354600454039081150290604051600060405180830381858888f193505050501580156106a6573d6000803e3d6000fd5b50600060019054906101000a900473ffffffffffffffffffffffffffffffffffffffff1673ffffffffffffffffffffffffffffffffffffffff166108fc6003549081150290604051600060405180830381858888f19350505050158015610711573d6000803e3d6000fd5b5050565b600060019054906101000a900473ffffffffffffffffffffffffffffffffffffffff1681565b3373ffffffffffffffffffffffffffffffffffffffff16600260009054906101000a900473ffffffffffffffffffffffffffffffffffffffff1673ffffffffffffffffffffffffffffffffffffffff161415156107cd576040517f08c379a00000000000000000000000000000000000000000000000000000000081526004016107c490611116565b60405180910390fd5b600160058111156107da57fe5b6000809054906101000a900460ff1660058111156107f457fe5b141515610836576040517f08c379a000000000000000000000000000000000000000000000000000000000815260040161082d906110f6565b60405180910390fd5b6064600a6004540281151561084757fe5b04341015801561085957506004543411155b151561089a576040517f08c379a0000000000000000000000000000000000000000000000000000000008152600401610891906110d6565b60405180910390fd5b60026000806101000a81548160ff021916908360058111156108b857fe5b02179055503460078190555061012c4201600881905550565b3373ffffffffffffffffffffffffffffffffffffffff16600060019054906101000a900473ffffffffffffffffffffffffffffffffffffffff1673ffffffffffffffffffffffffffffffffffffffff16141515610963576040517f08c379a000000000000000000000000000000000000000000000000000000000815260040161095a90611096565b60405180910390fd5b6002600581111561097057fe5b6000809054906101000a900460ff16600581111561098a57fe5b1415156109cc576040517f08c379a00000000000000000000000000000000000000000000000000000000081526004016109c3906110f6565b60405180910390fd5b8015610a1e576001600960006101000a81548160ff021916908360028111156109f157fe5b021790555060036000806101000a81548160ff02191690836005811115610a1457fe5b0217905550610ad1565b6002600960006101000a81548160ff02191690836002811115610a3d57fe5b021790555060056000806101000a81548160ff02191690836005811115610a6057fe5b0217905550600260009054906101000a900473ffffffffffffffffffffffffffffffffffffffff1673ffffffffffffffffffffffffffffffffffffffff166108fc6007549081150290604051600060405180830381858888f19350505050158015610acf573d6000803e3d6000fd5b505b50565b600260009054906101000a900473ffffffffffffffffffffffffffffffffffffffff1681565b6000809054906101000a900460ff1681565b60035481565b60045481565b60085481565b3373ffffffffffffffffffffffffffffffffffffffff16600260009054906101000a900473ffffffffffffffffffffffffffffffffffffffff1673ffffffffffffffffffffffffffffffffffffffff161480610b7c57504260085411155b1515610bbd576040517f08c379a0000000000000000000000000000000000000000000000000000000008152600401610bb490611076565b60405180910390fd5b60036005811115610bca57fe5b6000809054906101000a900460ff166005811115610be457fe5b141515610c26576040517f08c379a0000000000000000000000000000000000000000000000000000000008152600401610c1d906110f6565b60405180910390fd5b60056000806101000a81548160ff02191690836005811115610c4457fe5b0217905550600160009054906101000a900473ffffffffffffffffffffffffffffffffffffffff1673ffffffffffffffffffffffffffffffffffffffff166108fc600354600754039081150290604051600060405180830381858888f19350505050158015610cb7573d6000803e3d6000fd5b50600060019054906101000a900473ffffffffffffffffffffffffffffffffffffffff1673ffffffffffffffffffffffffffffffffffffffff166108fc6003549081150290604051600060405180830381858888f19350505050158015610d22573d6000803e3d6000fd5b50565b60075481565b60055481565b6000610d3d82356111ec565b905092915050565b600060208284031215610d5757600080fd5b6000610d6584828501610d31565b91505092915050565b610d77816111f8565b82525050565b610d868161119a565b82525050565b610d958161120a565b82525050565b6000601d82527f4f6e6c792073656c6c65722063616e207369676e20636f6e74726163740000006020830152604082019050919050565b6000603382527f4f6e6c792062757965722063616e207769746864726177206265666f7265207460208301527f72616e73616374696f6e20646561646c696e65000000000000000000000000006040830152606082019050919050565b6000602a82527f4f6e6c79207265616c746f722063616e2072657669657720636c6f73696e672060208301527f636f6e646974696f6e73000000000000000000000000000000000000000000006040830152606082019050919050565b6000603f82527f4275796572206e6565647320746f20706179207468652072657374206f66207460208301527f686520636f737420746f2066696e616c697a65207472616e73616374696f6e006040830152606082019050919050565b6000603c82527f4275796572206e6565647320746f206465706f736974206265747765656e203160208301527f302520616e64203130302520746f207369676e20636f6e7472616374000000006040830152606082019050919050565b6000601482527f57726f6e6720636f6e74726163742073746174650000000000000000000000006020830152604082019050919050565b6000601c82527f4f6e6c792062757965722063616e207369676e20636f6e7472616374000000006020830152604082019050919050565b6000602382527f4f6e6c792062757965722063616e2066696e616c697a65207472616e7361637460208301527f696f6e00000000000000000000000000000000000000000000000000000000006040830152606082019050919050565b61101a816111e2565b82525050565b60006020820190506110356000830184610d7d565b92915050565b60006020820190506110506000830184610d8c565b92915050565b6000602082019050818103600083015261106f81610d9b565b9050919050565b6000602082019050818103600083015261108f81610dd2565b9050919050565b600060208201905081810360008301526110af81610e2f565b9050919050565b600060208201905081810360008301526110cf81610e8c565b9050919050565b600060208201905081810360008301526110ef81610ee9565b9050919050565b6000602082019050818103600083015261110f81610f46565b9050919050565b6000602082019050818103600083015261112f81610f7d565b9050919050565b6000602082019050818103600083015261114f81610fb4565b9050919050565b600060208201905061116b6000830184611011565b92915050565b60006040820190506111866000830185611011565b6111936020830184610d6e565b9392505050565b60006111a5826111c2565b9050919050565b60006006821015156111ba57fe5b819050919050565b600073ffffffffffffffffffffffffffffffffffffffff82169050919050565b6000819050919050565b60008115159050919050565b60006112038261121c565b9050919050565b6000611215826111ac565b9050919050565b60006112278261122e565b9050919050565b6000611239826111c2565b905091905056fea265627a7a72305820fee1f62c3c9a626878701488a8055a6316b41d3c263ba4c96171060480fefafc6c6578706572696d656e74616cf50037",
  "source": "pragma solidity >=0.4.25 <0.6.0;\npragma experimental ABIEncoderV2;\n\nimport \"./Factory.sol\";\n\ncontract HomeTransaction {\n    // Constants\n    uint256 constant timeBetweenDepositAndFinalization = 5 minutes;\n    uint256 constant depositPercentage = 10;\n\n    //States of a contract\n    enum ContractState {\n        WaitingSellerSignature,\n        WaitingBuyerSignature,\n        WaitingRealtorReview,\n        WaitingFinalization,\n        Finalized,\n        Rejected\n    }\n    ContractState public contractState = ContractState.WaitingSellerSignature;\n\n    // Roles acting on contract\n    address payable public realtor;\n    address payable public seller;\n    address payable public buyer;\n\n    // Contract details\n    uint256 public realtorFee;\n    uint256 public price;\n\n    //Id of property\n    uint256 public propertyId;\n\n    //address of deployed Factory contract\n    address instanceFactoryAddr;\n\n    // Set when buyer signs and pays deposit\n    uint256 public deposit;\n    uint256 public finalizeDeadline;\n\n    // Set when realtor reviews closing conditions\n    enum ClosingConditionsReview {\n        Pending,\n        Accepted,\n        Rejected\n    }\n    ClosingConditionsReview closingConditionsReview =\n        ClosingConditionsReview.Pending;\n\n    constructor(\n        address _instanceFactoryAddr,\n        uint256 _propertyId,\n        uint256 _realtorFee,\n        uint256 _price,\n        address payable _realtor,\n        address payable _seller,\n        address payable _buyer\n    ) public {\n        require(\n            _price >= _realtorFee,\n            \"Price needs to be more than realtor fee!\"\n        );\n\n        instanceFactoryAddr = _instanceFactoryAddr;\n\n        realtor = _realtor;\n        seller = _seller;\n        buyer = _buyer;\n        propertyId = _propertyId;\n        price = _price;\n        realtorFee = _realtorFee;\n    }\n\n    function sellerSignContract() public payable {\n        require(seller == msg.sender, \"Only seller can sign contract\");\n\n        require(\n            contractState == ContractState.WaitingSellerSignature,\n            \"Wrong contract state\"\n        );\n\n        contractState = ContractState.WaitingBuyerSignature;\n    }\n\n    function buyerSignContractAndPayDeposit() public payable {\n        require(buyer == msg.sender, \"Only buyer can sign contract\");\n\n        require(\n            contractState == ContractState.WaitingBuyerSignature,\n            \"Wrong contract state\"\n        );\n\n        require(\n            msg.value >= (price * depositPercentage) / 100 &&\n                msg.value <= price,\n            \"Buyer needs to deposit between 10% and 100% to sign contract\"\n        );\n\n        contractState = ContractState.WaitingRealtorReview;\n\n        deposit = msg.value;\n        finalizeDeadline = now + timeBetweenDepositAndFinalization;\n    }\n\n    function realtorReviewedClosingConditions(bool accepted) public {\n        require(\n            realtor == msg.sender,\n            \"Only realtor can review closing conditions\"\n        );\n\n        require(\n            contractState == ContractState.WaitingRealtorReview,\n            \"Wrong contract state\"\n        );\n\n        if (accepted) {\n            closingConditionsReview = ClosingConditionsReview.Accepted;\n            contractState = ContractState.WaitingFinalization;\n        } else {\n            closingConditionsReview = ClosingConditionsReview.Rejected;\n            contractState = ContractState.Rejected;\n\n            buyer.transfer(deposit);\n        }\n    }\n\n    function buyerFinalizeTransaction() public payable {\n        require(buyer == msg.sender, \"Only buyer can finalize transaction\");\n\n        require(\n            contractState == ContractState.WaitingFinalization,\n            \"Wrong contract state\"\n        );\n\n        require(\n            msg.value + deposit == price,\n            \"Buyer needs to pay the rest of the cost to finalize transaction\"\n        );\n\n        contractState = ContractState.Finalized;\n\n        //Transfer of ownership\n        Factory instanceFactory = Factory(instanceFactoryAddr);\n        instanceFactory.setOwner(propertyId, buyer);\n\n        //Transfer of money\n        seller.transfer(price - realtorFee);\n        realtor.transfer(realtorFee);\n    }\n\n    function anyWithdrawFromTransaction() public {\n        require(\n            buyer == msg.sender || finalizeDeadline <= now,\n            \"Only buyer can withdraw before transaction deadline\"\n        );\n\n        require(\n            contractState == ContractState.WaitingFinalization,\n            \"Wrong contract state\"\n        );\n\n        contractState = ContractState.Rejected;\n\n        seller.transfer(deposit - realtorFee);\n        realtor.transfer(realtorFee);\n    }\n}\n",
  "sourcePath": "/home/omar/Desktop/ENSIAS/2A/Projects/PFA 2021/light-bootstrap-dashboard-angular2-master/ethereum/contracts/HomeTransaction.sol",
  "compiler": {
    "name": "solc",
    "version": "0.5.0+commit.1d4f565a.Emscripten.clang"
  },
  "schemaVersion": "3.0.1",
  "updatedAt": "2021-07-01T10:11:20.625Z",
  "devdoc": {
    "methods": {}
  },
  "userdoc": {
    "methods": {}
  }
}